:100000000EC01DC01CC01BC01AC019C018C017C02C
:1000100016C015C014C013C012C011C010C01124E6
:100020001FBECFE5D1E0DEBFCDBF20E0A0E6B0E04F
:1000300001C01D92A736B207E1F71ED0D6C0E0CFAF
:1000400087B3896187BBB9980000389A379A000056
:100050000895369A3699FECF25B184B190E0922B5F
:10006000089583B7836083BF8AB583688ABD089586
:100070008AB58F778ABD0895F894E2DFC398C49853
:10008000F894E7DF90936100809360008A32934098
:100090007CF4C49A87EA91E60197F1F700C000006A
:1000A000C49887EA91E60197F1F700C00000F1CF0C
:1000B000C49AC39AD6DF8FE189BD9FED23E984E01E
:1000C000915020408040E1F700C00000C498C398E0
:1000D000CFDFC1E0D0E11FE1809162008823D1F041
:1000E0008130E1F7C39ABDDFD9BD8FED93E924E0FC
:1000F000815090402040E1F700C00000C398B8DF75
:100100008FE996E821E0815090402040E1F700C05F
:10011000000049C0B19922C010926600109265009B
:10012000B19B03C01092620002C0C0936200809134
:10013000650090916600019690936600809365003B
:1001400089EF90E00197F1F700C000008091650011
:1001500090916600883E93401CF3BECF10926200DF
:10016000BBCF80916300909164008A309105F1F4D7
:10017000C49AC39A76DF19BD8FED93E924E08150CC
:1001800090402040E1F700C00000C498C39870DFA1
:1001900010926400109263001092620080916200DD
:1001A000813009F099CFB199DCCF06C001969093C8
:1001B000640080936300F2CF109264001092630099
:1001C000C49A8FE996E821E0815090402040E1F701
:1001D00000C00000C4988FE996E821E0815090406B
:0E01E0002040E1F700C00000D9CFF894FFCF17
:00000001FF
